:0400000013EF00F00A
:10000800B4B055EF00F0B8B0B890C06B07681000F6
:10001800AFA012EF00F0AF9028EF00F0100066EDEF
:1000280000F06CED00F084ED00F08EED00F00401BE
:10003800C3979FEC00F09FEC00F0C3879FEC00F0A3
:100048009FEC00F01BEF00F0050E026E000E066E2E
:10005800076E4EEF00F00401000EFB6F000EFA6F02
:1000680000445BEC00F007B212EF00F006B212EFAA
:1000780000F0C06E036E9FEC00F0012E46EF00F01A
:1000880049EF00F0002A2FEF00F0022E4EEF00F0AB
:1000980012EF00F0C3870A0E016E000E006E2FEFFC
:1000A80000F0B4900350C06F06680BEF00F0F9261B
:1000B800810C420C240C180C000C180C240C420C5B
:1000C800810C000C0001600EAD6F020EB16F1200C2
:1000D8000401D36BC387286B286BCB97CB85298505
:1000E8000401D06BC06B106BC86B0401CE6B006B46
:1000F800C68701870401CF990899C7890989120021
:100108000201030E3E6F02010C0E3F6F02012A0E20
:10011800406F1200D68A0301639168816C81D69082
:10012800AF909F80D692B490A480D694B890A880BF
:10013800D68ED68C1200FA0E056EF90E046E0000EB
:0E014800042EA3EF00F0052EA1EF00F0120030
:020000040030CA
:10000000EC0D27C79FFFFFFFFFFFFFFFFFFFFFFF75
:10001000FFFFFFFFFFFFFFFFFFFFFFFFFFFFFFFFF0
:03002000FFFFFFE0
:00000001FF
