:10000000DDED00F0E4ED00F0CEB604EF00F0C293B9
:10001000C281C09FC081E8ECFFF0CEB615EF00F0C2
:10002000E8ECFFF0CEB610EF00F0C091C083E8EC32
:10003000FFF0CEB621EF00F0E8ECFFF0CEB61CEFFB
:1000400000F0C093C085E8ECFFF0CEB62DEF00F0D5
:10005000E8ECFFF0CEB628EF00F0C095C087E8ECE2
:10006000FFF0CEB639EF00F0E8ECFFF0CEB634EF9B
:1000700000F0C097C089E8ECFFF0CEB645EF00F085
:10008000E8ECFFF0CEB640EF00F0C099C08BE8EC92
:10009000FFF0CEB651EF00F0E8ECFFF0CEB64CEF3B
:1000A00000F0C09BC08DE8ECFFF0CEB65DEF00F035
:1000B000E8ECFFF0CEB658EF00F0C09DC08FE8EC42
:1000C000FFF0CEB669EF00F0E8ECFFF0CEB664EFDB
:1000D00000F0C291C283C09FC081E8ECFFF0CEB6B1
:1000E00077EF00F0E8ECFFF0CEB672EF00F0E8EC4E
:1000F000FFF0C091C083E8ECFFF0CEB685EF00F0D2
:10010000E8ECFFF0CEB680EF00F0E8ECFFF0C09333
:10011000C085E8ECFFF0CEB693EF00F0E8ECFFF01E
:10012000CEB68EEF00F0E8ECFFF0C095C087E8ECAB
:10013000FFF0CEB6A1EF00F0E8ECFFF0CEB69CEFFA
:1001400000F0E8ECFFF0C097C089E8ECFFF0CEB615
:10015000AFEF00F0E8ECFFF0CEB6AAEF00F0E8EC6D
:10016000FFF0C099C08BE8ECFFF0CEB6E8ECFFF0F2
:10017000BFEF00F0E8ECFFF0CEB6BAEF00F0E8EC2D
:10018000FFF0C09BC08DE8ECFFF0CEB6CDEF00F0E5
:10019000E8ECFFF0CEB6C8EF00F0E8ECFFF0C09D51
:1001A000C08FE8ECFFF0CEB607EF00F0E8ECFFF010
:1001B000CEB6D6EF00F007EF00F00001600EAD6F95
:1001C0000001020EB16F12000401D269C26B206BF4
:1001D000CA6B0401D069C06B106BC86B0401CE6B95
:0801E000006BC68701871200C5
:020000040001F9
:10FEB60000EF00F0010E006E0000002E5FEFFFF075
:10FEC6001200060E006E0000002E67EFFFF0120013
:10FED6000E0E006E00000000002E6FEFFFF0120005
:10FEE600170E006E000000000000002E77EFFFF0F6
:10FEF6001200400E006E00000000002E80EFFFF0A2
:10FF060012003D0E006E0000002E86EFFFF012007C
:10FF16007B0E006E000000000000002E8FEFFFF049
:10FF26001200010E016EF90E006E0000002E98EF11
:10FF3600FFF0012E96EFFFF01200050E016EF90E8E
:10FF4600006E0000002EA4EFFFF0012EA2EFFFF0DE
:10FF560012000A0E016EF90E006E0000002EB0EFC0
:10FF6600FFF0012EAEEFFFF01200190E016EF90E32
:10FF7600006E0000002EBCEFFFF0012EBAEFFFF07E
:10FF86001200320E016EF90E006E0000002EC8EF50
:10FF9600FFF0012EC6EFFFF01200640E016EF90E9F
:10FFA600006E0000002ED4EFFFF0012ED2EFFFF01E
:10FFB6001200C80E016EF90E006E0000002EE0EF72
:10FFC600FFF0012EDEEFFFF01200FA0E016EF90EC1
:10FFD600006E0000002EECEFFFF0012EEAEFFFF0BE
:10FFE6001200F00E016EF90E006E0000002EF8EF02
:0AFFF600FFF0012EF6EFFFF01200FD
:020000040030CA
:10000000EC0D27C79FFFFFFFFFFFFFFFFFFFFFFF75
:10001000FFFFFFFFFFFFFFFFFFFFFFFFFFFFFFFFF0
:03002000FFFFFFE0
:00000001FF
