:10000000DBED00F0E2ED00F0CEA68BEF00F0E8ECC7
:10001000FFF0E8ECFFF0400EC16FE8ECFFF0E8EC19
:10002000FFF0CEA68BEF00F0E8ECFFF0E8ECFFF07D
:10003000790EC16FE8ECFFF0E8ECFFF0CEA68BEF95
:1000400000F0E8ECFFF0E8ECFFF0240EC16FE8EC04
:10005000FFF0E8ECFFF0CEA68BEF00F0E8ECFFF04D
:10006000E8ECFFF0300EC16FE8ECFFF0E8ECFFF0D9
:10007000CEA68BEF00F0E8ECFFF0E8ECFFF0190EF5
:10008000C16FE8ECFFF0E8ECFFF0CEA68BEF00F0DC
:10009000E8ECFFF0E8ECFFF0120EC16FE8ECFFF0C7
:1000A000E8ECFFF0CEA68BEF00F0E8ECFFF0E8EC18
:1000B000FFF0020EC16FE8ECFFF0E8ECFFF0CEA617
:1000C0008BEF00F0E8ECFFF0E8ECFFF0780EC16F8A
:1000D000E8ECFFF0E8ECFFF0CEA68BEF00F0E8ECE8
:1000E000FFF0E8ECFFF0000EC16FE8ECFFF0E8EC89
:1000F000FFF0CEA68BEF00F0E8ECFFF0E8ECFFF0AD
:10010000180EC16FE8ECFFF0E8ECFFF0CEA68BEF25
:1001100000F007EF00F0E8ECFFF0E8ECFFF0200E55
:10012000C16FE8ECFFF0E8ECFFF0CEB607EF00F0AF
:10013000E8ECFFF0E8ECFFF0030EC16FE8ECFFF035
:10014000E8ECFFF0CEB607EF00F0E8ECFFF0E8ECEB
:10015000FFF0460EC16FE8ECFFF0E8ECFFF0CEB622
:1001600007EF00F0E8ECFFF0E8ECFFF0210EC16FC4
:10017000E8ECFFF0E8ECFFF0CEB607EF00F0E8ECBB
:10018000FFF0E8ECFFF0040EC16FE8ECFFF0E8ECE4
:10019000FFF0CEB607EF00F0E8ECFFF0E8ECFFF080
:1001A0000E0EC16FE8ECFFF0E8ECFFF0CEB607EF03
:1001B00000F08BEF00F00001600EAD6F0001020E49
:1001C000B16F12000401D16BC169186BC96B0401D6
:0A01D000CE6B006BC687018712009A
:020000040001F9
:10FEB60000EF00F0010E006E0000002E5FEFFFF075
:10FEC6001200060E006E0000002E67EFFFF0120013
:10FED6000E0E006E00000000002E6FEFFFF0120005
:10FEE600170E006E000000000000002E77EFFFF0F6
:10FEF6001200400E006E00000000002E80EFFFF0A2
:10FF060012003D0E006E0000002E86EFFFF012007C
:10FF16007B0E006E000000000000002E8FEFFFF049
:10FF26001200010E016EF90E006E0000002E98EF11
:10FF3600FFF0012E96EFFFF01200050E016EF90E8E
:10FF4600006E0000002EA4EFFFF0012EA2EFFFF0DE
:10FF560012000A0E016EF90E006E0000002EB0EFC0
:10FF6600FFF0012EAEEFFFF01200190E016EF90E32
:10FF7600006E0000002EBCEFFFF0012EBAEFFFF07E
:10FF86001200320E016EF90E006E0000002EC8EF50
:10FF9600FFF0012EC6EFFFF01200640E016EF90E9F
:10FFA600006E0000002ED4EFFFF0012ED2EFFFF01E
:10FFB6001200C80E016EF90E006E0000002EE0EF72
:10FFC600FFF0012EDEEFFFF01200FA0E016EF90EC1
:10FFD600006E0000002EECEFFFF0012EEAEFFFF0BE
:10FFE6001200F00E016EF90E006E0000002EF8EF02
:0AFFF600FFF0012EF6EFFFF01200FD
:020000040030CA
:10000000EC0D27C79FFFFFFFFFFFFFFFFFFFFFFF75
:10001000FFFFFFFFFFFFFFFFFFFFFFFFFFFFFFFFF0
:03002000FFFFFFE0
:00000001FF
